:10000000C0110020310C0000F73F00001D0C000063
:100010001D0C00001D0C00001D0C00000000000065
:10002000000000000000000000000000690C00005B
:100030001D0C000000000000410E00001D0C00001F
:10004000B90E0000B90E0000B90E0000B90E000094
:10005000B90E0000B90E0000B90E0000B90E000084
:10006000B90E0000B90E0000B90E0000B90E000074
:10007000B90E0000B90E0000B90E0000B90E000064
:10008000B90E0000B90E0000B90E0000B90E000054
:10009000B90E0000B90E0000B90E0000B90E000044
:1000A000B90E0000B90E0000B90E0000B90E000034
:1000B000B90E0000B90E0000B90E0000B90E000024
:1000C000B90E0000B90E0000B90E0000B90E000014
:1000D000B90E0000B90E0000B90E0000B90E000004
:1000E000B90E0000B90E0000B90E0000B90E0000F4
:1000F000B90E0000B90E0000B90E0000B90E0000E4
:1001000053B94AB9002908BF00281CBF4FF0FF317E
:100110004FF0FF3000F00CB8ADF1080C6DE904CEE3
:1001200000F008F8DDF804E0DDE9022304B07047D0
:10013000704700BF2DE9F0478C468E46089E154655
:1001400004461946002B40F0D080724547D9B2FAD8
:1001500082F74FB1C7F120030EFA07FC20FA03F330
:10016000BD4043EA0C0CBC404FEA154EA8B2BCFBA4
:10017000FEF8230C0EFB18CC08FB00F943EA0C43F5
:10018000994528D9EB1808F1FF3204D2994502D9D4
:10019000A8F102022B44A3EB0903A4B2B3FBFEFCBB
:1001A0000EFB1C330CFB00F044EA0344A04214D9BC
:1001B0002C190CF1FF3304D2A04202D9ACF1020396
:1001C0002C44241A43EA02401EB1FC400023346050
:1001D0007360BDE8F0874246DDE76346F1E7002A39
:1001E00079D0B2FA82F3002B3FD01946C1F1200337
:1001F00002FA01F52EFA03F20EFA01FE20FA03F3D9
:1002000043EA0E034FEA154E00FA01F4B2FBFEFC7E
:10021000AFB20EFB1C201A0C0CFB07F842EA00429E
:1002200090455AD9AA180CF1FF3004D2904502D952
:10023000ACF102002A44A2EB08029BB2B2FBFEFC26
:100240000EFB1C220CFB07F743EA02439F4246D9F0
:10025000EB180CF1FF3204D29F4202D9ACF102023A
:100260002B44DB1B42EA004202E0AEEB0203012218
:100270004FEA154EAFB2B3FBFEFC200C0EFB1C3355
:100280000CFB07F840EA034398452AD9EB180CF118
:10029000FF3004D2984502D9ACF102002B44A3EB05
:1002A0000803A4B2B3FBFEFC0EFB1C330CFB07F7E8
:1002B00044EA0344A74216D92C190CF1FF3304D2A7
:1002C000A74202D9ACF102032C44E41B43EA0040EC
:1002D0000F46114678E71F2188E76046ABE7624684
:1002E000BFE76046DBE76346EFE7734506D916B91B
:1002F000002108466DE7C6E9000EF9E7B3FA83F777
:1003000087B9734501D3824207D8841A6EEB030381
:1003100001209C461EB900215BE73846FAE7C6E992
:10032000004CF8E7C7F1200CBB4022FA0CF51D4346
:1003300020FA0CF12EFA0CF30EFA07FE41EA0E0138
:100340004FEA154900FA07F4B3FBF9F81FFA85FEE6
:1003500009FB18300B0C08FB0EFA43EA00439A45E0
:1003600002FA07F240D9EB1808F1FF3004D29A459F
:1003700002D9A8F102002B44A3EB0A0389B2B3FB14
:10038000F9F809FB183308FB0EFE41EA03418E45DC
:100390002CD9691808F1FF3304D28E4502D9A8F18F
:1003A0000203294443EA0040A0FB0298A1EB0E019E
:1003B0004145CE46434602D306D14C4504D2B9EB63
:1003C000020E68EB05030138002EA4D0B4EB0E0238
:1003D00061EB030101FA0CFC22FA07F34CEA030378
:1003E000F940C6E9003196E74046C5E74346D9E7FC
:1003F0002DE9F3412549264803F0F8FC254804F08F
:10040000D8FB00283DD0244D284604F0D2FB00281C
:1004100037D0AB6800211B6828469847002830DB9E
:100420001C4F1E4803F0E2FCD7F8088000264FF46A
:100430007A741848D8F80C304C219847002820DBF3
:100440000F21D8F810306A4638469847002818DB44
:100450006EB9009B012B0AD184B1643C104821463F
:1004600003F0C4FCAB680C481B6821469847009E0B
:10047000002140F6CD4004F09DFCDAE74FF47A7499
:10048000ECE7002002B0BDE8F08100BFA4530000FB
:10049000AA530000845000004C500000C9530000D3
:1004A000F753000008B5024803F0A0FC002008BD87
:1004B00028540000014B1B68184700BF00000020B3
:1004C000014B1860704700BF0000002030B50446A3
:1004D00085B00D4610220021684604F0EDFC022391
:1004E0008DF802302A46044B01932146684603F0FA
:1004F000C9F905B030BD00BFB50400002DE9F047D3
:10050000058B0446280717460CD501290CBF45F07A
:10051000100545F02005258387F31188BFF36F8F01
:10052000BDE8F087022905F0070540F094802046D9
:1005300003F069FC052864D801A353F820F000BF3C
:10054000190500005706000003060000C50500005D
:10055000DF050000F105000001F007035A1F012A22
:100560001FD8002221F00701062BD4F8008089B2A1
:10057000C4E9002209D1434603E0628B0132628361
:100580001B68002BF9D141F002012183204603F0C2
:100590003AFC4FF0000900286DD041F02001218382
:1005A00069E0042B0AD121F0070189B2218320469A
:1005B00003F029FC10B141F0200121834FF0000825
:1005C000C14658E02369D3F80090238B23F007033A
:1005D00043F0060323834FF0000846464BE02369AF
:1005E000D3F80490238B23F0070343F00403F1E7CF
:1005F0002369D3F80890238B23F0070343F0050306
:10060000E8E74FF00008C146E7E7012243F008039E
:10061000238387F31188BFF36F8F002A3BD1B8F192
:10062000000F4AD1B9F1000F02D02D492046C8472A
:10063000EFF31187202383F31288BFF36F8F238B8F
:1006400023F008039BB22383D9063FD523F0100281
:10065000228303F007056669218B002EBFF67CAF6D
:100660000023D4F8008021F00701C4E9003341F0F1
:10067000010121839946238B03F0070AAA4502D082
:10068000A268002AC1D1B8F1000F02D1B9F1000F60
:10069000DAD00022BAE7A1680029C0D00D6800298D
:1006A000BDD04F68334652462046B8471DB12B682F
:1006B00029461D46F3E72B46FAE7414633465246A4
:1006C0002046D8F8008003F0CAFBA8E79A067FF519
:1006D00023AF23F02002228303F0070527E700BFA2
:1006E0008B3E0000014B036000207047B8520000B1
:1006F00080B505460E461746984602F0F1FD0346C2
:1007000000F0ECFBDFF81890044649F80030424650
:1007100030463946A84754F8090000F07BFB00BF7B
:100720000800000008B50348034A0021121A03F02C
:100730005AFC08BDC8000020FC0300200748084AF6
:10074000084908B5121A03F050FC0748074A08493F
:10075000BDE80840121A03F048BC00BF00000020AA
:10076000C800002000590000000000200000002008
:100770000059000038B505460C4699B1D1E901236E
:100780000F48096803F032FBD4E90423E1680D48FF
:1007900003F02CFBE1690C4803F028FBA1690B482E
:1007A00003F024FB012D05D1EFF305810848103932
:1007B00003F01CFB21462846BDE8384002F006B88D
:1007C0006354000093540000C3540000D35400004D
:1007D0000255000030BFFFF7FDBF00BF2DE9F0411B
:1007E0000B4EDFF8308006EB0807CC1B054632467F
:1007F0000949204604F052FBA01942460021083C5A
:1008000004F05AFB2C6707F10800BDE8F08100BF37
:100810000000000004000000A85200002DE9F84389
:10082000324D804632488946174603F0DFFAAB6AFC
:10083000DE0622D52F4803F0D9FA1124AB6A1D0732
:1008400003D52D4803F0D2FA1224284DAB6A98073D
:1008500015D52A4803F0CAFA6E6BAB6A190642D561
:100860002748314603F0C2FAB9F1000F03D0AB6A52
:1008700023F08003AB62132403E01024DEE76FF063
:1008800015061A4DAB6ADA0703D51E4803F0AEFA17
:100890001424AB6A9B0603D51B4803F0A7FA152462
:1008A000124B9A6AD50602D49A6A90070AD55B68F9
:1008B000190507D54146304600F062FA10B180F3C1
:1008C00009880224094B9A6A920642BF5A6A22F4A6
:1008D00000525A629A6A42F0FF029A6200233B7009
:1008E0002046BDE8F8836FF01506C4E700ED00E090
:1008F000165500002D55000061550000755500008B
:100900008E550000A5550000C555000010B51D4CC2
:100910001D4803F06BFAA36A990130D51B4803F018
:1009200065FA1E20A36ADA0103D5194803F05EFABE
:100930001F20144CA36A1B0303D5164803F056FA74
:100940002120A36A590303D5134803F04FFA22204C
:100950000C4CA36A9A0303D5104803F047FA2320EE
:10096000A36ADB0303D50E4803F040FA2420054AAE
:10097000936A6FEA03436FEA1343936210BD1D202D
:10098000D0E700BF00ED00E0F55500000E56000076
:10099000225600003D5600005C56000082560000C2
:1009A0009D56000070B5244C064624480D4603F0C1
:1009B0001DFAA36AD90435D5214803F017FA172088
:1009C000A36A1A0503D51F4803F010FA18201A4C21
:1009D000A36A9B050FD51C4803F008FAA16BA36A14
:1009E000180407D5194803F001FA1EB1A36A23F4CD
:1009F0000043A3621920104CA36A590503D514487B
:100A000003F0F4F91A20A36ADA050DD5114803F0B2
:100A1000EDF91B20084A936A43F47F439362002355
:100A20002B7070BD1620CBE7A36A9B04F2D50A4851
:100A300003F0DCF91C20EDE700ED00E0C9560000F2
:100A4000E056000061550000F25600000C5700000F
:100A5000225700003E570000C55500002DE9F04127
:100A60005D4B5F688AB00446C7F30806002585F32E
:100A70001188BFF36F8F02F07F43B3F17F4F06D130
:100A800002F00C03082B13D1544803F0AFF90025F2
:100A90002C464FF00008F31E8DF80780092B00F25A
:100AA0008C80DFE803F00A80847C8A8A8A8A8A88BC
:100AB00010074CBF0C460125EBE74948464E03F0B2
:100AC00095F98DF80780F36A9A0704D5454803F035
:100AD0008DF900232AE0F36A002B01DA4248F6E799
:100AE000F36A5B00F5D5414803F080F97369A269A8
:100AF00043F480737361BFF34F8FBFF36F8F32F88E
:100B0000023C726922F480727261BFF34F8FBFF3AF
:100B10006F8F03F47F42B2F55F4F27D1DBB2022B18
:100B200024D12168324803F061F923689DF8072039
:100B3000CAB902AE04F1200720686168324603C2D8
:100B40000834BC421646F7D1099A002D41D0C2F3B1
:100B5000080121B96FEA52226FEA4222099202A9E2
:100B60001846FFF707FE0AB0BDE8F0811A4B9A6AF3
:100B7000D2B232B10DF1070201212046FFF74EFE3D
:100B80000FE09A6A12F47F4F05D00DF107010120A2
:100B9000FFF708FF05E09B6AB3F5803F99D3FFF7A5
:100BA000B5FE0346C2E70DF107020021E5E70DF1AE
:100BB00007010020ECE70F4889E70F4B0F49104869
:100BC00017F4F87FA6F1100208BF194603F00EF9DA
:100BD0007FE76FF30802C1E700ED00E085570000F2
:100BE000B1570000C9570000EB570000FA5700004A
:100BF0001A58000037580000575700006C57000083
:100C00005C580000044B5A6942F010025A615A695C
:100C100022F008025A61704700ED00E0EFF308800F
:100C2000EFF3098101B57246FFF718FF01BD00BF60
:100C30000B4880F3088801F01DFA202080F311880A
:100C400008484FF40461401880F30988EFF31480DA
:100C50000221084380F31488BFF36F8F00F058F827
:100C6000C0110020000400201EF0040F0CBFEFF3A1
:100C70000880EFF30980816911F8021C0229FFD076
:100C800001B5724603F0B3F901BD00BF40B20028C0
:100C900007DB044A4109012300F01F00834042F8AA
:100CA0002130704700E100E0054B420900F01F00D1
:100CB00053F82220012303FA00F01040704700BFD0
:100CC00000E100E040B20028A8BF00F1604001F15F
:100CD0000101B8BF064B4FEA4111ACBF00F56140BE
:100CE00000F00F00C9B2B4BF195480F80013704768
:100CF00014ED00E0044B054A23F07F039360BFF33B
:100D00004F8FBFF36F8F70470000000000ED00E0D1
:100D100008B5FFF7EFFF0B4AD2F8883023F47003D1
:100D2000C2F88830EFF3148323F0040383F31488AC
:100D3000BFF36F8FFFF7F6FCFFF700FD00F0B0F890
:100D400001F00AFE00ED00E042F8203C009B42F872
:100D50001C3C0A49019B42F8183C029B42F8143C97
:100D600021F001014FF0807342F8043C42F8081C66
:100D70000023203A02654367704700BFF106000078
:100D8000094A0346906870B113F1160F006E05D042
:100D9000A0F14002934205D3834203D2814228BF8F
:100DA0000020704700207047C403002008B5154696
:100DB0000B4A0C4B9060026F1A600E4600F0A0F8D0
:100DC0002C4686F309880020034B984720460021D3
:100DD00000220023014C204713400000F1060000D0
:100DE000C4030020C0020020014B10221A6170478A
:100DF00000ED00E0054B5A699B689A421FBF044A08
:100E0000536843F080535360704700BFC403002011
:100E100000ED00E0084B9B6883420BD1EFF30583A4
:100E200043B1064B5A6842F080525A605A6A22F423
:100E300000425A6203F0FFBEC403002000ED00E050
:100E400014498A684FF030001044EFF3098C80E8B1
:100E5000F01F202080F31288BFF36F8F0E4F4FF0EA
:100E600000664A698A603E60106F0C4C2060506FCB
:100E70000023536780F3118804B5104600F040F852
:100E8000BDE8044002F1300090E8F01F8CF30988BF
:100E900070470000C403002004ED00E0C002002001
:100EA000044800232021C2180133302B82F800139C
:100EB000F9D1704700E100E008B5EFF30583064A79
:100EC000103B02EBC30152F8330049688847BDE884
:100ED0000840FFF78FBF00BFA05000000148006826
:100EE00070470000C0020020024B034A0348012162
:100EF00000F076B80000042000000020B852000086
:100F0000036E054A403B1360044B4021C2E90113C4
:100F10001046012100F06EB8C402002000000B153D
:100F2000084AC2F898000B6823F01F03034343F0FC
:100F30001003C2F89C308B6843F00103C2F8A03064
:100F4000704700BF00ED00E02DE9F043DFF860805E
:100F500085B00E461F4604464FF00009B14523DA1E
:100F60006068D8B13FB1411E08421BD11F2819D972
:100F70002368194216D12368019303F05EF8A36831
:100F800003430393D8F89050C5F30725D0B2013D31
:100F9000A84207D801A9FFF7C3FF421C09F10109C4
:100FA0000C34DBE76FF01502104605B0BDE8F083A6
:100FB00000ED00E0044B0522C3F89420BFF34F8FEF
:100FC000BFF36F8F704700BF00ED00E0BFF35F8F8E
:100FD000024B0022C3F89420704700BF00ED00E0F0
:100FE00010B5034C01232278FFF7AEFF207010BD2F
:100FF000F403002008B50B4A00231278FFF7A4FF82
:1010000010F1160F07D0084A0021D2F89030C3F330
:101010000723984200DB08BDC2F89800C2F8A01070
:101020000130F2E7F403002000ED00E02DE9F04389
:101030005A4B5B4DD3F890302C68C3F307239C4286
:1010400085B000F2A780FFF7C1FF00200C26844284
:101050001AD1544EDFF8449134706846FFF742FBD2
:10106000514C524D80460027B84514D133784B4936
:101070000020D1F89020C2F307229342C0F284806E
:10108000FFF798FF002045E0696806FB0011FFF7B5
:1010900047FF0130DBE7009800EB07114FEA071C20
:1010A000CB682340B3F5000F4DD00AD8B3F5001F2D
:1010B00033D0B3F5800F3BD0B3F5801F13D0013789
:1010C000D2E7B3F1007F47D0B3F1805F4DD0B3F1E9
:1010D000807FF4D150F80C3088684A6802F0ADFF88
:1010E00040F0887009E050F80C3088684A6802F0D7
:1010F000A4FF40F0885040F43020CDE90123039054
:10110000D9F890303078C3F30723013B984234D9A3
:101110006FF0150005B0BDE8F08350F80C3088681A
:101120004A6802F08AFF40F0885040F40020E4E76B
:1011300050F80C3088684A6802F07FFF40F0C060C9
:1011400040F40030D9E750F80C3088684A6802F063
:1011500074FF40F08270D0E750F80C3088684A681D
:1011600002F06BFF40F48020C7E750F80C3088682D
:101170004A6802F062FF2843BFE701A9FFF7D0FEEB
:101180003378013333709AE7C1F89830C1F8A00082
:1011900001336EE74FF0FF30BCE700BF00ED00E029
:1011A000C4520000F40300200000F0FF0000021110
:1011B00008B5024B1B689847002008BDD0020020EC
:1011C000034B044A1860937843F00203937070470E
:1011D000D00200200400002008B50649064821F08E
:1011E0000701C1F1005202F5802202F0BCFD00208F
:1011F00008BD00BF07120020D40200200C4B0122C2
:10120000C3F840254FF080434FF08051C3F8782554
:10121000D1F83001082805D1D1F83411022908BFCE
:10122000C3F838260122C3F880250020704700BF8C
:1012300000E0014048B1054B054A1B68B3FBF2F3DF
:101240005843044B43F0010318477047A4000020A3
:1012500040420F00B052000008B5054A054B13602C
:1012600010463F23536000F0DBFF002008BD00BFA5
:10127000E0020020FFFF0F00084B70B5C31A0D46B7
:1012800007499B10044659430648402202F0F3FEEA
:101290002B4601462046BDE870401847FC0200205E
:1012A000B76DDBB6F84F000073B50C4C0C4A402309
:1012B000041B00930D460B460A49A41061430646E1
:1012C000094802F003FF014628B130462B4602B020
:1012D000BDE87040184702B070BD00BFFC0200209E
:1012E0003B410000B76DDBB6F84F00000022F8B5B7
:1012F000012105461046FFF7E5FC104800F0B8FF55
:101300000446B8B900F0D4FF2F690D49384602F001
:10131000C9FD031E09DB01263E642D69084905F15C
:101320001C0002F0BFFD031E02DA1C462046F8BD79
:10133000EE64FBE76FF00404F8E700BF6D140000F3
:10134000E45200001FB500220123CDE902236C46C0
:10135000074A6B46CDE9004402F0E8FE28B94FF495
:1013600080420023684601F041FC04B010BD00BF7C
:101370004D41000010B5EFF31184202383F3128850
:10138000BFF36F8F074A136823F00201DB07116078
:1013900002D4012003F0F7F884F31188BFF36F8FB4
:1013A00010BD00BF4C03002030B4104B0C2202FBD8
:1013B000003301460020D3E90E529863EFF3118009
:1013C000202484F31288BFF36F8F1C6C04F0C004D8
:1013D00044F002041C6480F31188BFF36F8F1DB1C9
:1013E0002B46034830BC184730BC7047FC02002035
:1013F000F84F000010B4EFF31180202282F312881E
:10140000BFF36F8F17490B6843F0020413F0010319
:101410000C601AD04FF08043D3F80C14D3F80C347E
:1014200013F0010311D0EFF3118182F31288BFF39F
:101430006F8F0D4A136C03F0C00343F00203136473
:1014400081F31188BFF36F8F012380F31188BFF3FD
:101450006F8F1BB110BC0020FFF7A6BF10BC01208E
:1014600003F089B84C030020FC02002010B10128D1
:1014700004D07047034B1B6C5B0701D1FFF794BF8F
:10148000704700BFFC020020024AC3B21C2000FBD0
:1014900003207047FC020020F8B52A49BFF35B8F98
:1014A0000546012251E8003F41E800200028F9D11B
:1014B000BFF35B8F33B9244924484B60CB608A600B
:1014C00002F003FD6B1E012B3BD8012D07D14FF01D
:1014D0008043D3F81C3403F00303012B31D003F015
:1014E000A4FBA0B91A4B1E784FF080440223C4F825
:1014F00008330127D4F81824D4F81834D20308D4B8
:10150000002EF7D00021212003F054FCF2E7002642
:10151000EAE703F00303012B0ED0D4F818354BB9DA
:10152000D4F8042132B1C4F80431D4F80431C4F839
:101530001875A760012DE3D14FF080430222C3F854
:101540000423F8BDF8020020E80200201803002060
:10155000F703002008B5074803F02BFB38B1064815
:10156000FFF72EFE0448FEF7ABFF002008BD6FF02A
:101570001200FBE7305000007D1500000A2838B546
:10158000074D044604D1AB680D215B682846984797
:10159000AB6803485B68E1B29847204638BD00BF9E
:1015A0003050000038B5430906D10A4B596819B1CB
:1015B00001250C68854001B938BD8A682A4002D0EF
:1015C0004B68054898471CB1236821461C46F2E742
:1015D0002346FAE750030020145000002DE9F043A1
:1015E000476840F20636D0063B7C87B002EA060622
:1015F00054BFC2F3401C4FF0030C01F01F05B6F5B9
:10160000837F144645EA43158DF803C044D00DD8B6
:10161000062E16D005D8A6B1022E3FD06FF01500C9
:1016200037E0B6F5807FF9D101260AE040F20222C8
:10163000964235D0B6F5407F34D0B6F5007FEDD177
:101640000226220330D57A6801238B40C2F8083580
:10165000B868A0BB05F01F036D092DD0012D77D10F
:101660003E4A02EB8302C4F30043D2F8001783F032
:101670000103C4F3404444EA430421F4E16144EA31
:101680008C0421F0070144EA06230B43C2F800371B
:10169000002007B0BDE8F0830726D2E70426D0E794
:1016A0000526CEE70326CCE7630341BF01237A6812
:1016B0008B40C2F80C35CBE74FF0A042D1E70DF1DB
:1016C0000202294603F0CFF914F4403F80460CD1C2
:1016D000B868294603F0FCF9B8F1000FD8D19DF89D
:1016E0000210B86800F07AFFD2E74FF0000901ABB2
:1016F000CDE90199CDE90439CDF80C90B86803AA79
:10170000294603F085F84845C2DB14F4003314D0B1
:10171000C4F300449DF803308DF80E3084F00104CA
:101720008DF80C608DF80D40B8684B4603AA294629
:1017300003F021F90028CFDAAAE7CDE904330DF14F
:1017400003030393B86803AA294603F061F8F1E79D
:1017500003F5E07350F82330FFDE00BF00030050B4
:1017600038B54568A86890B103F0ACF9014670B986
:10177000A86803F08BF9044658B902460649A868E0
:1017800003F06EF9224605210620FFF79BFA0020A0
:1017900038BD6FF00400FBE7A5150000F0B5446804
:1017A0001646A068227C01F01F0587B045EA421565
:1017B00000286DD0B6F5001F04D1294603F0DBF9EF
:1017C000002056E06268607CC2F8240501AA00206F
:1017D000B6F5800F0190506037D1B3F1007F14BF90
:1017E000052304238DF804300023CDE9042303935B
:1017F000E36823FA01F111F001010DF103073AD179
:10180000B6F1A07F37D105F01F036A0903F5E07335
:1018100026D0012A3FD1214A52F82330DB072AD4AF
:10182000A0683A46294603F01EF916301BD00297ED
:10183000A06803AA294602F0EBFF002819DBA06884
:101840000122294603F046F9BAE7B3F1C06F05D08B
:10185000B3F1007F14BF01230223C3E70323C1E7D1
:101860004FF0A042D8E7A068394600F0BDFE00283E
:10187000DDDA07B0F0BDA0683A46294603F0F3F878
:101880000028D5D19DF80310A06800F0A7FECFE78F
:101890006FF08500EDE751F82330FFDE00030050C4
:1018A0002DE9F04FDFF8F8E03E4E002740F2FF1C34
:1018B000FBB2994202D80020BDE8F08F50F82750C3
:1018C000C5F3C72A1AF0080AC5F3C324C5F30803F1
:1018D00056D12D0E1EF80440634508BF4FF0FF336C
:1018E000032D50D8DFE805F0023A4043C2F80C352A
:1018F0005D1C31D05D093DD0012D47D1DFF8A8B086
:101900004FF0010903F01F0809FA08F5CBF8085554
:101910004D4650F827B00BF40048B8F1000F0CBF4B
:10192000AA46012503F01F095B0926D0012B31D1FE
:101930001D4B03EB8908CBF3412BD8F8003703EAA2
:101940000609230243EA8B0343EA0A0343EA4503F9
:1019500043EA0903C8F800370137A9E7C2F814358C
:101960005D1CF9D00025D4E7C2F80835C0E7C2F8FD
:101970001035F5E74FF0A04BC2E74FF0A043D8E792
:101980006FF0150098E76FF0850095E70023C3F826
:101990000835FFDE09F5E079002353F82930F8E730
:1019A000E5580000F0F8FCFF00030050014B012255
:1019B0001A60704700C000400C2903690BD15B6AB4
:1019C000064907484B4393FBF0F100FB11331160CC
:1019D0005360002070476FF08500704790D003007F
:1019E00040420F00044B00690022C3F80021D3F8E5
:1019F000003101F0D9B800BF00C000407FB50569D3
:101A0000AB6A63B321F040010C292BD105F110061C
:101A10004FF0FF324FF0FF33304601F003F8134B25
:101A20000193A86A0323002469460394029302F0F9
:101A30004CFA4FF0FF324FF0FF33284601F0D6F852
:101A4000A86A02F08DFA0A4BD3F808256A620122CF
:101A50005A60304601F058F8204604B070BD6FF06F
:101A60000A00FAE76FF08500F7E700BFAD19000044
:101A700000C0004010B504690020FFF705FDA0621A
:101A80004FF0FF320021204603F0C3F804F11000AC
:101A900003F0B8F8002201210C20FFF713F90C2005
:101AA000FFF7F4F8024B0122C3F80423002010BD15
:101AB00000C000402DE9F041044647680D4603F0A0
:101AC000B4F888B14FF02008EFF31186314688F35F
:101AD0001288BFF36F8F606802F0C4FB50BB86F3BF
:101AE0001188BFF36F8FEFE71F4B1B78002BE9D0F6
:101AF0004FF020086426606802F0B4FB70B9012042
:101B000002F0E8FC013EF6D10021212003F052F959
:101B1000F0E786F31188BFF36F8FF5E7EFF31186D7
:101B2000314688F31288BFF36F8F606802F09AFB2A
:101B30000028EED0BB691D706368BA691B6800207D
:101B4000C3F844250122C3F84825C3F82001D3F87F
:101B50002041C3F85801D3F858019A6081F31188E5
:101B6000BFF36F8FBDE8F081F703002070B501234C
:101B700083400F4ABFF35B8FDC4352E8001F01EA4A
:101B8000040542E80056002EF7D1BFF35B8F4FF4F7
:101B9000803282400748C0F80823BFF35F8FBFF34D
:101BA0006F8F03EA0100003818BF012070BD00BF2D
:101BB000980300200010014011B3BFF35B8F012395
:101BC000104A834052E800CF4CEA030C42E800C1BF
:101BD0000029F7D1BFF35B8F0B4A4FF4803383406A
:101BE000C2F80433094BBFF35B8F1B68BFF35B8FF5
:101BF000C340DB0742BF064B4FF40032C3F800215D
:101C0000704700BF9803002000100140940300209B
:101C100000E100E00D4B1868010A0006BFF35F8F7A
:101C20000B4BD3F80435181841F10001B3F5801FB0
:101C30000AD2084BD3E90023904271EB030303D28D
:101C400010F1807041F10001704700BFA003002037
:101C500000100140E00000202DE9F04F85B016464D
:101C60001F469DF840A00446FFF780FF0190FFF754
:101C7000D1FFB04271EB07035ED23E4B301A67EBE7
:101C80000101984271F1000109D36FF0150520465A
:101C90000199FFF791FF284605B0BDE8F08F364B5C
:101CA00003EB0413D3E902239F4208BF964254D0AA
:101CB00032494FF4803804F1500508FA04F8AD00B9
:101CC000C1F848832046ADB202F074FB26F07F4B8A
:101CD00005F1804504F5A87305F58835DC464FF01D
:101CE00003090293029A2CF07F4341F82230C1F895
:101CF0004483D1F80435224A6FF00200C01A6044D0
:101D000020F07F40904228D9286868B1D1F8043586
:101D10000393A3EB0B0020F07F40B0F5000F1CD91C
:101D2000204602F047FB039BBAF1000FADD109EB4F
:101D3000030C09F10109D5E7BAF1000FA5D1012380
:101D4000104ABFF35B8FA34052E8000F184342E8EC
:101D500000010029F8D1BFF35B8F07490E982301DA
:101D600001EB0412C8500F9B5360C2E902670025C3
:101D70008DE700BF01008000C80000200010014076
:101D8000FDFF7F00940300207FB51C4C1C4BC4F862
:101D90000833C4F848331B4B00254FF0FF304FF099
:101DA000FF31C4F80855C3E902014FF48033C4F889
:101DB0000433154B02264FF400320121C4F80463AA
:101DC0001120C3F880212A46FEF77CFF1120FEF780
:101DD0005DFF0E4A0123A360236013600C4B0D4A84
:101DE0000093CDE9015500232846FFF735FF304623
:101DF000FFF752FB284604B070BD00BF0010014041
:101E000003000F00C800002000E100E0980300205C
:101E1000191E0000FFFF7F00D0B522F07F44FFF7BE
:101E2000F9FE134AD2E90031C01AC31841F100018A
:101E3000C2E900310F4B00221A60A4F50013B3F57C
:101E4000400F09D20C4B1B681A0A1B061E190B4BBC
:101E500042F10007C3E90067EFF31181202383F308
:101E60001288BFF36F8FBDE8D04001F0BFBB00BF49
:101E7000D80000209C030020A0030020E0000020E8
:101E80002DE9F7432E4CD4F8043399070BD5D4F839
:101E9000043143B12B4A0023C4F80431D4F804318F
:101EA000136801331360D4F80433DA0343D5BFF366
:101EB0005B8F254B53E8002F22F0010143E800100F
:101EC0000028F7D1BFF35B8FD30702D4D4F8403199
:101ED0008BB30025C4F84051D4F84031FFF79AFE87
:101EE000EFF31182202383F31288BFF36F8F174B18
:101EF000D3E90267B042B94120D34FF0FF304FF031
:101F0000FF31C3E90201D3E900981D604FF480332B
:101F1000C4F84833C4F84051D4F8403182F31188F2
:101F2000BFF36F8FB9F1000F05D0CDF800803246B6
:101F30003B460020C84703B0BDE8F083A946EDE763
:101F400000100140A003002094030020C8000020DE
:101F50001FB5104B411CD3E9002304D10E49521880
:101F600043F100030DE00D490968C417081844F156
:101F70000001B0F5000F71F10004EFD2821841EBBF
:101F80000303074900910020CDE90100FFF764FE3B
:101F900004B010BDD8000020FFFF7F009C0300208C
:101FA000191E000008B5FFF735FE034B1B68C01A69
:101FB000024B186008BD00BFD80000209C03002021
:101FC0002DE9F341446806690546206802F0F1FDF9
:101FD000002841D020682179E388D0F810E0D0F8BB
:101FE0000880DEF80070DA0754BF43F4B01383F4BE
:101FF000D0134FF0010C23F480120CFA01FCDB0724
:102000004CBF4CEA070727EA0C07CEF80070D8F857
:1020100000309847002808DB11490022304602F0C2
:102020002CFF7563A4681CB9002002B0BDE8F081E4
:102030004FF4004540F2E73000214FF47A7200235C
:10204000E4FB0501FEF75CF802460B46CDE9000112
:10205000304601F0C1FBE7E76FF01200E5E700BF93
:10206000CD430000024AD2F80034002BFBD0704769
:1020700000E0014010B54FF08053D3F83021082A1A
:102080004ED14FF080420021C2F80C11C2F810115D
:10209000C2F8381502F54042D3F80414C2F82015EE
:1020A000D3F80814C2F82415D3F80C14C2F8281574
:1020B000D3F81014C2F82C15D3F81414C2F8301544
:1020C000D3F81814C2F83415D3F81C14C2F840150C
:1020D000D3F82014C2F84415D3F82414C2F84815D4
:1020E000D3F82814C2F84C15D3F82C14C2F85015A4
:1020F000D3F83014C2F85415D3F83414C2F860156C
:10210000D3F83814C2F86415D3F83C14C2F8681533
:10211000D3F84014C2F86C15D3F84434C2F87035C3
:1021200002F0C8F918B1374B374AC3F88C2602F0D1
:10213000C1F918B1354BFB22C3F8182502F0BAF9E2
:1021400058B14FF080424FF08051D2F8E43ED1F8C0
:10215000581261F30303C2F8E43E02F0ABF920B178
:102160002B4B4FF40072C3F840264FF08053D3F846
:102170003031082B17D14FF08043D3F80024D20719
:1021800044BF6FF00102C3F800244FF08053D3F82E
:102190003431042B81BF4FF01023D3F808224FF0C5
:1021A0008043C3F858254FF01023D3F80022002AAB
:1021B00003DBD3F80432002B22DA164901234FF057
:1021C0001020C1F804351224FFF74CFFC0F800427C
:1021D000FFF748FFC0F80442FFF744FF0023C1F8AF
:1021E0000435FFF73FFFBFF34F8F0B490B4BCA6816
:1021F00002F4E0621343CB60BFF34F8F00BFFDE7F3
:1022000010BD00BF005000404881030000F00040B6
:102210000090024000E0014000ED00E00400FA05FB
:10222000014B1860704700BFA803002010B5054B94
:102230001868144602F050F90028A4BF207000204E
:1022400010BD00BFA8030020024A01238340C2F84A
:102250000435704700F00140014B00201B6818470F
:10226000AC030020014B1B68184700BFAC030020E3
:1022700010B50C4C237993B9012323710A4B2060CC
:10228000002818BF184600F049F850B923680748DD
:10229000002BBDE8104008BF184600F08FB86FF063
:1022A000770010BDAC030020592200006522000019
:1022B00008B5064B1B683BB10020FEF7F5FC18B9CA
:1022C000BDE80840FEF7E2BC08BD00BFAC0300203B
:1022D00038B54FF080440123C4F80833636000230D
:1022E000C4F80031D4F8003142F21075D4F80C244F
:1022F000D4F80C34D20307D5DB0705D5012002F052
:10230000E9F8013DF2D138BD02F04CF90028FAD0CD
:10231000014B00225A71F6E7B403002010B50849BA
:102320000C794CB9012308600B7102F03BF908B934
:10233000002010BD4C71FBE76FF07700F9E700BF9C
:10234000B40300204FF080430022C3F80021D3F8EB
:102350000021094901221A60096811B1C3F8042358
:102360007047D3F80021002AFBD00022C3F80021D7
:10237000D3F80031704700BFB403002010B54FF010
:102380008043D3F80423D20715D5D3F8002192B1A6
:102390000022C3F800210121D3F80021C3F808135B
:1023A00002F000F9044B10B15A7922B95971BDE815
:1023B00010401B68184710BDB4030020074A13796A
:1023C00043B90121106011714FF080421846C2F8E4
:1023D000183570476FF07700704700BFBC030020CE
:1023E00010B54FF080431D4CD3F81814D3F81824BF
:1023F00011F4803F1AD002F00302012A01D092B9F1
:1024000000224FF08043C3F818250022C3F80421AE
:10241000D3F8042101229A6022688AB9D3F80421F2
:10242000002AFBD014E002F0CEF8E9E7D3F8142438
:10243000D107E5D5D3F81C249207F4D422681AB149
:102440000222C3F8042310BDD3F80421002AFBD0D4
:102450000022C3F80421D3F80431F4E7BC030020C0
:10246000F8B54FF08043194FD3F80443012504F029
:102470001A04002604B9F8BDB4FA84F0C0F11F00B4
:10248000830003F580739BB203F1804305FA00F2E9
:10249000196892B224EA02040029EBD01E601B687E
:1024A0004FF08043022AC3F808230BD1D3F8181445
:1024B000D3F81814890705D1C3F81855C3F80423B5
:1024C0009D60D7E73B68C0B29847D3E7BC030020C4
:1024D000036803F01F025B09026004D0012B03486C
:1024E00018BF002070474FF0A04070470003005015
:1024F000034A430900F01F00D35C1844C0B2704780
:10250000ED580000024611F0010030B515D18B07DF
:10251000C1F3400022D51249D1F8200550604FF098
:102520008052C1F82005D2F83021082A08BFD1F81E
:102530002025003818BF012010E04FF0A0444FF0D4
:102540008055D4F820351360C4F82035D5F83051C3
:10255000082D08BFD4F82045002BD8D030BD00BFCF
:1025600000030050F7B504460846FFF7C1FF04EB2F
:1025700040060D46B38ADB072AD5204602F026F92D
:102580002946204602F092F850B1204602F0A4F805
:10259000276807EB80000023C0F81035C0F810351D
:1025A0002946204602F0C1F80021B18201A8019518
:1025B000FFF78EFF019B00EB8300074BD0F800274D
:1025C000134043F00203C0F80037084603B0F0BDE3
:1025D0006FF01500FAE700BFF0F8FCFF014801F0CA
:1025E00099BF00BFA800002010B504480C4601F0B8
:1025F00073FF0028A4BF2070002010BDA800002099
:102600002DE9F04F074689B057F8049BD9F8041319
:10261000C9B28346082241F00041484602F0AEF8B4
:10262000051E2FDA0023032106A8CDE90633FFF7A4
:1026300069FF634B01930DF118084FF0000A019AEE
:10264000604912F8013B0192DA0803F007038A5C43
:1026500022FA03F3DB071CD40AF10103022B08F171
:1026600004084FF0010AEAD14FF000410022484629
:1026700002F084F8032106A8FFF744FF0028D8D110
:1026800025F000450124002D40F0848009B0BDE80C
:10269000F08F4D4B53440293D8F80060002EDBD0EE
:1026A000029B96FAA6F61C78B6FA86F646EA441419
:1026B0002046FFF71DFF0BEB4000F208818A18F857
:1026C00002000594C1F382030393009306F007060A
:1026D000012303FA06F620EA060008F8020005A81E
:1026E000FFF7F6FE059A039B02F5E07211F0100F5A
:1026F00050F82260C6F3014633D0009A384621468E
:1027000001F0F4FF05A80594FFF7E2FE059B03F531
:10271000E073F6B250F82330C3F301439E4207D171
:102720000021204601F0B3FF3146204601F0AFFF03
:1027300005A80594FFF7CCFE059B012202FA03F3DE
:10274000C0F820354FF08053D3F83031082B01BF4B
:10275000D0F82035D0F82035D0F82035D0F8203505
:102760009AE7022E14BF022103212046039301F0B1
:102770008EFF039B032B03D0022E07D1012BD7D151
:10278000009A2146384601F0B1FFD1E7032ECFD1A0
:10279000022BF4E795FAA5F3B3FA83F304FA03F2F4
:1027A00025EA020503F5A2720BEB430359F8222038
:1027B000B3F87C10C2F30142384601F097FF62E79C
:1027C000FD58000088530000FD58000038B5EFF3B5
:1027D0001185202383F31288BFF36F8F064B9C680B
:1027E00002F0FAF985F31188BFF36F8F2046BDE838
:1027F0003840FEF70FBB00BFC403002038B50A4BBA
:1028000053F82040013053F82050A54200D838BD7D
:10281000606830B1037EDB0701D402F0B2F90834FE
:10282000F3E723689847FAE78C53000070B5294B0B
:10283000294C2A4D86B0012203201A70FFF7DEFFD3
:102840000420FFF7DBFF2646AE4204F130040FD32D
:1028500000F022FD204CAC4226D300F031FDFDF704
:10286000C7FD1F4A938923F00103938106B070BD11
:1028700054F80C3C059354F8103C049354F8143C61
:10288000039354F8183C029354F81C3C019354F8F9
:10289000203C009354E90A2354E90C0100F0CCF9E0
:1028A00054F8303C5E65CEE7D4E90A23B3F1FF3F2C
:1028B00008BFB2F1FF3F05D052EA0301206803D1FF
:1028C00000F016FA3034C6E70649183000F09EFDD5
:1028D000F8E700BFF703002020520000205200005C
:1028E000A0010020594D000070B5002386B00122E0
:1028F000CDE90423134E144D01930F22CDE902328A
:102900001249142303FB005506EBC01604464FF48E
:10291000C07000FB04110E4B00954FF4A0723046BE
:1029200000F08AF9337C0B4AEE6023F00403337421
:102930004FF4046304FB033313442C746B6006B040
:1029400070BD00BF20010020C4030020400C002007
:10295000DF4B0000000400207FB50020FFF74EFF92
:10296000284B83F30888284C636943F40073636140
:102970000025E02384F82230E57725766576A57674
:1029800084F82050636A43F4E023636284F82350A0
:10299000FEF738F9FEF728FA4FF0FF33A362E3623F
:1029A000FEF744FBFEF7A0FA1848194C00F094F922
:1029B0000120FFF723FF0220FFF720FF00F064FC57
:1029C000144B15495C61154B059301234FF480624C
:1029D000CDE90353CDE90155114B0095204600F098
:1029E0002BF9237C064623F004032046237402F0CF
:1029F0007BF92846FFF778FF094A31462046FEF763
:102A0000D5F900BF400C002000ED00E020020020BE
:102A1000A0010020C4030020C00D0020D1580000F8
:102A20002D2800002DE9F341044617461E46EFF31A
:102A30001188202383F31288BFF36F8F304BC26855
:102A40009B6872B18068984217D057EA060216D187
:102A500088F31188BFF36F8F6FF00F0002B0BDE8ED
:102A6000F08193F90E1021610132C4E9023288F33A
:102A70001188BFF36F8F0020F0E72169F3E793F926
:102A80000E1090F90E30994230DA9942A8BF1946DB
:102A900002F0B0F80546CDE900761A4822464146D4
:102AA00000F01AFB0028E6D0EFF31186202383F311
:102AB0001288BFF36F8FA068D0B1236821699C4250
:102AC0000AD04BB193F90E309942A8BF19466FF066
:102AD0007F039942B8BF194602F08CF840B109480B
:102AE000314602F064F96FF00A00B7E70025D2E73B
:102AF000002DF4D186F31188BFF36F8FF3E700BF89
:102B0000C4030020F8030020F8B583680546002BB5
:102B10003FD0234A926893423ED1C368012B03D928
:102B2000013BC3600020F8BDEFF31187202383F33E
:102B30001288BFF36F8F0169806802F05BF82C6820
:102B4000A54207D10023C5E9023387F31188BFF3FB
:102B50006F8FE7E7002CF5D0D4E9003213605A609C
:102B6000237C002623F002032374C4E90066A660D8
:102B700004F1180000F0E2FCAC6094F90E302B6117
:102B80002046A66702F0BFF80648394602F00FF962
:102B9000C8E76FF01500C6E74FF0FF30C3E700BF8E
:102BA000C4030020F803002038B50446EFF3118574
:102BB000202383F31288BFF36F8F0022114602F0A7
:102BC00012F928B129460848BDE8384002F0EFB8AC
:102BD000D4E902329A4218BF0133A36085F3118809
:102BE000BFF36F8F38BD00BFF803002013B5EFF3BC
:102BF0001181202484F31288BFF36F8F846844B15D
:102C0000013C846081F31188BFF36F8F002002B014
:102C100010BD52EA030406D181F31188BFF36F8F10
:102C20006FF00F00F3E7CDE900230246014800F002
:102C300053FAECE7F80300202DE9F043073285B0A2
:102C40001F4622F0070200F15803C0E916337F3215
:102C5000109B838100250E4622F03F020F9981735D
:102C60000423C0E90655044685600374C57300213A
:102C700000203F2AC4E90A0106F14009A2F14008F8
:102C800005D885F31188BFF36F8F184602DFB5189A
:102C900029462046FDF7A2FD07300E9B20F00700D5
:102CA000A066C4E9189802930D9B01932D1A0C9B02
:102CB00000932A463B4631462046FEF745F800235E
:102CC0006365044B9B6803B1DB6EE366284605B081
:102CD000BDE8F083C4030020012303748381002333
:102CE000C0E91833C366014B98607047C4030020E5
:102CF00038B50446EFF31185202383F31288BFF320
:102D00006F8F037C5B070FD5183000F017FC237C16
:102D100023F004032046237401F0F5FF29460548FB
:102D2000BDE8384002F043B885F31188BFF36F8FD8
:102D300038BD00BFF8030020094A93686FF00A010C
:102D40009967084958674B6843F080534B600023EC
:102D500083F31188BFF36F8F9368986F704700BF3C
:102D6000C403002000ED00E038B590F91020037C8A
:102D7000002A014604DA03F07F03037401F07CFFAC
:102D80000D4D2A46AB6852F8184F944200D004B952
:102D9000EC688B4207D01A7CD20604D1DA897F2AEC
:102DA00001D9A2692AB1A34202D0204600F0CEFA8E
:102DB00023466B6138BD00BFC403002070B590F995
:102DC0001020037C002A2FDBD9062DD11A4C63F08A
:102DD0007F032246037452F8183FE169934207D1FA
:102DE000C0E900210860E0610FE09942F8D01B685B
:102DF000002BF5D093F90E6090F90E50AE42F4DD41
:102E00005968C0E9003108605860A569954200D052
:102E100005B9E568A3681A7CD20606D1DA897F2A4B
:102E200003D9AA690AB9636170BDAB4202D02846D2
:102E300000F08CFA6561F7E7C4030020034648B947
:102E4000EFF3058232B9064A51699268914201D086
:102E5000FFF772BF83F31188BFF36F8F704700BF16
:102E6000C403002038B5184CA168E0690B688142A2
:102E700014BF1A46002249680B605960A368E169D3
:102E80002AB9124AC3E900210B60E3610AE092F912
:102E90000E5093F90E00854212DD5168C3E90021FE
:102EA0000B605360A569094B9D4200D005B9E568E8
:102EB000A3689D4202D0284600F048FA656138BDFB
:102EC0008A42DED01268DBE7C4030020DC03002066
:102ED0002DE9F843002A027C0CBF4FF010084FF098
:102EE000080818EA020F04460D4664D148EA0203B6
:102EF000D2090CD10374B8F1080F7DD1A36813B1C6
:102F0000204601F0C1FE04F1180620270FE003F06F
:102F10007F03037401F0B0FEEDE785F31188BFF382
:102F20006F8FEFF3118587F31288BFF36F8F3046F1
:102F300000F004FB0B30F0D0A66D04F15807B74247
:102F400013D04FF0000986B1304601F09DFEC6F85F
:102F5000789006F1180000F0F1FA0B3002D03046FC
:102F6000FFF72CFFA66DB742EDD1274B9B689C4223
:102F700042D1EFF30587003F18BF0127DFF88890A3
:102F80004B4653F8186F9E4200D00EB9D9F80C602A
:102F9000D9F80830B34202D0304600F0D7F9B8F182
:102FA000100FC9F8146006D0204601F02FF817B1B1
:102FB0001648FFF791FE144B9B68A3421ED1EFF316
:102FC0000583DBB9A289D20711D585F31188BFF338
:102FD0006F8F83F31188BFF36F8F0423184602DFCE
:102FE000EFF31185202383F31288BFF36F8F2846F8
:102FF000BDE8F843FFF7A0BE0027BFE785F31188BF
:10300000BFF36F8FBDE8F883C403002020020020C7
:1030100070B50F4D2B46064653F8184F9C4200D012
:1030200004B9EC68AB681A7CD20604D1DA897F2A2D
:1030300001D9A2692AB1A34202D0204600F086F944
:1030400023466B613046BDE87040FFF7F7BE00BF16
:10305000C403002070B5EFF31186202383F3128898
:10306000BFF36F8F1A4CA168E0690B68814214BFEF
:103070001A46002249680B605960A368E1692AB9C1
:10308000144AC3E900210B60E3610AE092F90E5093
:1030900093F90E00854216DD5168C3E900210B60EB
:1030A0005360A5690B4B9D4200D005B9E568A36844
:1030B0009D4202D0284600F049F965613046BDE8DE
:1030C0007040FFF739BE8A42DAD01268D7E700BFF6
:1030D000C4030020DC030020F8B5124B0C46114657
:1030E000114A98681060DDE90676EFF3118220221C
:1030F00082F31288BFF36F8F9D68284601F0CEFDE2
:10310000B6F1FF3F08BFB7F1FF3F06D007493A4687
:10311000334605F1180000F079F92046BDE8F84083
:10312000FFF70ABEC4030020E4030020594D00004D
:10313000F8B50446EFF31187202383F31288BFF319
:103140006F8F037C03F01F02002A0CBF01260026AC
:1031500049B235D103F07F03037401F08DFD294D91
:10316000037C817363F07F032A46037452F8183F8F
:10317000E869934207D1C4E900200460EC610DE0E6
:103180009842F8D01B68002BF5D093F90EC08C45FF
:10319000F6DD5968C4E900310C605C60AC699442AA
:1031A00000D004B9EC68AB689C4202D0204600F025
:1031B000CDF86C6187F31188BFF36F8F3046F8BD8F
:1031C0009B071CD5856801F057FD81732B689D42D4
:1031D00009D16B68C4E900531C606C60EAE76A6857
:1031E0009A42F6D01B68002BF3D093F90E208A4246
:1031F000F5DD5A68C4E9003214605C60DAE7817377
:10320000D8E700BFC4030020F8B550EA0103054623
:103210000C4603D101F02EFD0020F8BDEFF311871D
:10322000202383F31288BFF36F8F134E134BB068C4
:10323000186001F06AFDB06811492A46234618302B
:1032400000F0E4F8B3681A7C5F6742F004021A7475
:103250006FF00A029A670B4A536843F08053536039
:103260000446002383F31188BFF36F8F01F0FFFD45
:10327000201A20EAE070D0E7C4030020E403002015
:10328000594D000000ED00E0024B03F11802C3E9C4
:1032900006227047C4030020EFF31181202383F33B
:1032A0001288BFF36F8F054B9A68D37B013BD373B2
:1032B00081F31188BFF36F8F704700BFC4030020F4
:1032C000EFF31180202383F31288BFF36F8F034B3A
:1032D0009A68D37B0133D373FFF79ABEC4030020EF
:1032E000014B9868704700BFC4030020027C12F0B5
:1032F0001F02034610D10A4988420DD009490868C7
:1033000068B1D9897F2909D893F90E20064B1B682B
:103310009A42B8BF0020704700207047104670479F
:1033200020010020AC000020E8030020044BC01A5C
:10333000044BC0105843044B01221A54704700BF7D
:10334000A0020020ABAAAAAAF8030020F8B50C4BF3
:103350000C4D1E7C0C4FFFF7C9FF182303FB0655CD
:103360000446284600F0EAF834B1BB5D0749E21A8A
:10337000D317284600F04AF80023BB55F8BD00BF1C
:10338000C4030020A0020020F80300202D33000019
:1033900070B5EFF31186202383F31288BFF36F8F8C
:1033A0000F4D104BAC681868A04202D1FFF7CEFF5A
:1033B00011E000221A602B7C0B4AD35C5BB12046E3
:1033C000FFF794FF38B1237CDB0604D1FFF74AFDF9
:1033D0006869A042EAD086F31188BFF36F8F70BD91
:1033E000C4030020E4030020F8030020024B186807
:1033F000984208BF00207047B4000020024B1868B4
:1034000008B1FEF7CFBD7047B0000020B3F1FF3F19
:1034100008BFB2F1FF3F2DE9F84F04469946154623
:103420001F4600F081808160EFF31188202383F331
:103430001288BFF36F8FB9F1000FDFF8F4A025DB1E
:10344000FFF7DCFF3B4B1B68003B18BF012345190E
:1034500049EBE0795B19DAE9005749F10002C4E968
:1034600004325D19064642EB07074FF00109FFF7EA
:10347000BDFFDFF8C4E0DEF804A00346EBB9C4E901
:1034800000EACAF80040CEF8044028E0DAE9001269
:103490006FF001035B1A4FF0FF3161EB02025B1B1F
:1034A00062EB0902012B72F10001BCBF0123002273
:1034B000C0E904324FF00009D9E7D3E9041CD4E98C
:1034C00004208A4270EB0C0B25DA891A5A686CEBDF
:1034D0000000C3E90410C4E9003214605C60FFF727
:1034E00085FF84420FD1134B1B6801330BD1B9F117
:1034F000000F02D1FFF782FF0646304601F0A0FC24
:103500000021FEF725FD88F31188BFF36F8F284651
:103510003946BDE8F88F521A60EB0C005345C4E9F8
:103520000420ACD01B68A9E700252F46EFE700BFB9
:10353000B8020020B0000020B4000020F8B5044616
:10354000EFF31186202383F31288BFF36F8F026895
:1035500072B3FFF74BFF184B5B689C4208D0D2E96F
:103560000431D4E90475DB1941EB0501C2E90431EA
:10357000D4E900320025A04213605A60C4E9005526
:103580000ED000200D4A136823F001018C4204BFC5
:1035900043F00103136086F31188BFF36F8FF8BD0A
:1035A000FFF72CFF01F04CFC2946FEF7D1FCE8E7C1
:1035B0006FF01500E6E700BFB4000020EC03002028
:1035C000EFF31182202383F31288BFF36F8F064B32
:1035D0001B6840F001001B1A5842584182F31188C1
:1035E000BFF36F8F704700BFEC0300202DE9F04759
:1035F000DFF8B8902E4CC9F8000000232360FFF7D5
:10360000F5FE2C4FDFF8B0800E46D9F80050D7E910
:1036100000CE4FEAE57A50B1D0E904319D427AEB11
:1036200001021EDA5B1B61EB0A01C0E9043115EBF4
:103630000C054EEB0A02C7E9005200254FF0FF339C
:1036400028462360C9F8005001F0FAFB2946FEF72E
:103650007FFC86F31188BFF36F8FBDE8F047FFF75B
:1036600097BE13EB0C0C41EB0E01EB1AC7E900C13E
:10367000C9F80030D0E9003100258268C8F80000A0
:103680000B605960C0E9005586F31188BFF36F8F56
:103690009047EFF31186202383F31288BFF36F8FD7
:1036A000C8F80050FFF7A2FEAFE700BFF00300200C
:1036B000B0000020B8020020EC03002010B5EFF3AA
:1036C0001184202383F31288BFF36F8FFFF796FED8
:1036D000054A0346D2E90001181841EBE37184F36F
:1036E0001188BFF36F8F10BDB80200202DE9F041A3
:1036F0000446EFF31186202383F31288BFF36F8F04
:1037000003682BB186F31188BFF36F8FBDE8F0819A
:10371000FFF756FF07460028F4D1D4E90A586A1C7F
:1037200048F10003022A73F1000324D301F0A3FB44
:10373000281848EB0101012871F1000141DB01F07B
:103740009AFB6FF00203281848EB010183426FF0E7
:1037500000438B413ADB01F08EFB6FF001022D1824
:1037600048EB0103521B4FF0FF3161EB0303194992
:103770002046FFF74BFE236B01332363236A63B1BB
:1037800086F31188BFF36F8F20469847EFF31186B9
:10379000202383F31288BFF36F8F54F8185FA5427C
:1037A000B0D0002DAED0284601F0B1FA0023AB67AF
:1037B00086F31188BFF36F8F2846BDE8F04101F012
:1037C00093BA6FF001024FF0FF33D0E73A464FF063
:1037D0000043CCE7ED360000B3F1FF3F08BFB2F184
:1037E000FF3FF8B5044616461D4618D0EFF3118783
:1037F000202383F31288BFF36F8FFFF79FFEDDE96D
:1038000006010023C4E90A01236332462B46204601
:103810000349FFF7FBFD87F31188BFF36F8FF8BDF6
:10382000ED36000070B50546EFF31184202686F3CF
:103830001288BFF36F8FFFF781FE20B184F31188E8
:10384000BFF36F8F70BD6B6A63B184F31188BFF3F0
:103850006F8F6B6A28469847EFF3118486F31288BE
:10386000BFF36F8F05F1180001F08BFA0028E5D047
:1038700001F03AFA21460248BDE8704001F097BADB
:10388000F90300202DE9F04F8BB043680093837853
:103890009C078046924640F1F98000250878002870
:1038A00000F0F68025280AD04B1C019301354146D3
:1038B000009B98470028C0F2E3800199EEE74E781C
:1038C0008B1C252E0193F1D00027B9463C460A22D5
:1038D0001F2C22D8A6F12003102B20D8DFE803F0FC
:1038E000141F1F1A1F1F1F0B1F1F1F121F171F1F21
:1038F000090044F00104019B13F8016B0193002EB1
:10390000E6D13AE044F0020444F00404F3E744F062
:103910000804F0E744F01004EDE77F2C24D8A6F16A
:103920003003092B08D860064EBF02FB073702FBA5
:10393000093944F02004DEE72A2E0DD161065AF839
:10394000043B53D4002BA7BF44F020049946C3F195
:10395000000944F02804CEE72E2E05D1630600F1BD
:10396000978044F04004C6E76C2E2ED028D8682EED
:1039700032D06A2E37D04C2E35D0002F46F020039F
:10398000B8BF24F04004A3F16502BCBFA4B2002775
:10399000022A01D9612B2BD10AF1070A2AF0070A62
:1039A0009C4E0AF1080A0727210760D506EB070B92
:1039B00034465C455DD1AE1BA219A9EB070959E15C
:1039C000742E98D07A2E96D0D7E7260648BF44F4B6
:1039D000007444F080048EE7E00548BF44F40074AE
:1039E00044F4807487E744F4207484E71F4682E738
:1039F000A6F16302122A00F2D880DFE812F0130069
:103A00004D00D600D600D600D6004D00D600D60018
:103A1000D600D600D600E800D100D600D6001A00A5
:103A2000D600A0005AF8043B8DF81030012704AEF0
:103A3000BAE75AF8046B784B002E08BF1E4614F004
:103A4000400F14BF39464FF0FF31304601F03CFAC9
:103A50000746A9E7009B41462020984700280FDB36
:103A6000013CA742F6D34D442D1BA1469EE74C4690
:103A7000F7E714F8010B009B41469847002898DAB5
:103A800098F8023043F0040388F802304FF0FF3515
:103A900028460BB0BDE8F08F220630D5A3052AD505
:103AA0000AF1070A2AF007039A4659685AF8080BE0
:103AB00024F0100B00291FFA8BFB2FDA404261EB38
:103AC00041014BF4806B04AC0A23224601F008FA52
:103AD0001BF0400FA0EB040200F08E802BF00104DD
:103AE0009742A4B240F38F80002E40F08E802BF0DE
:103AF0001104A4B21DE05AF8040BC117D8E7E00581
:103B00005AF8041B01D40846F7E7A2054BBF48B298
:103B100008B241F3C01141F3C031C9E750EA0103D3
:103B2000D1D16306CFD5002FCDD124F01104A4B29A
:103B30003A463B4640F206410C4262D124E024F072
:103B40001004A4B20A2314F0800243D014F40071CC
:103B50001FBF0AF1070A2AF007029246516814BFF4
:103B60005AF8080B5AF8040B50EA01023ED124F02F
:103B7000160B62061FFA8BFB3CD5002F3AD124F0BE
:103B80001704A4B23A463B4621075AD4E10705D5AB
:103B9000994572DDA9EB03039F184B469B464AE00B
:103BA00044F0100410237826CDE7782B04D1C6F119
:103BB000780343F01003C6E7009B41462520984751
:103BC0000028FFF65DAF02354146304670E6082317
:103BD0000026B8E714F480715AF8040BC4D014F42A
:103BE00000711ABFC0B2114680B2BDE724F00604CE
:103BF0001FFA84FB04AC68E713465C46E10699D5DE
:103C00002EB90133C0E71346F8E73B46F6E7023327
:103C1000BAE700BFDD580000D6580000CDE90232F7
:103C20004146009B202098470028FFF629AFDDE998
:103C300002320BF1010BD945F0DCEB1A03EB0B055B
:103C40005B46E10627D5CDE902324146009B302094
:103C500098470028FFF614AFDDE902327EB901353E
:103C60002F44791B8A4229DB144604AE9CBB2A44AC
:103C7000A9EB03091546914442E017468EE7CDE9CA
:103C80000232023541463046009B98470028DDE964
:103C90000232E5DAF4E640F206410C42E0D014F0DC
:103CA000020F14BF2B20202014F4806FCDE90232C4
:103CB00005F10105414618BF2D20E5E7CDE90232A7
:103CC0004146009B302098470028DDE9023205F18B
:103CD0000105C6DAD4E6013CCDE90232305D009B35
:103CE000414698470028DDE90232BFDAC8E6009B6A
:103CF000414620209847002805F10105FFF6C0AE97
:103D0000A9EB0503002BF2DCD7E500BF704700EB01
:103D1000C100408840087047F8B50346FFF7F7FF39
:103D2000B0FA80F0C0F11F0003EB800CCA00DCF891
:103D30001060171D0C4606328DB256B9012101FAEA
:103D400000F0D9680143D960CCF81040DD539D5292
:103D5000F8BDF1000431585AD85303EBC0009E520D
:103D6000C5805D52F4E7043A2DE9F843CC1D1144B7
:103D700024F0070421F00706A6EB04084FEAD80751
:103D8000B7FA87F2C2F12405AD004FF000090735FC
:103D9000C2F12002ED0804604946A760C4F80C9007
:103DA000920004F1100001F087F8AAB2530043F02A
:103DB000010363807B1B9BB204EBC5015800A4F890
:103DC0000090488024F83520A6F8029024F80830A6
:103DD00004EBC70329465A8842F001025A80204664
:103DE000BDE8F843FFF798BF002070470FB407B550
:103DF00004A951F8040B0191FCF768FB03B05DF8CE
:103E000004EB04B07047038B13F0070306D103687B
:103E1000002B18BF032008BF00207047022B05D1DC
:103E2000408BB0FA80F0400980007047012B04D12C
:103E30000368002B18BF0520EDE70020704710B580
:103E40000C4600B111B96FF0150010BD081D00F04F
:103E5000ABF80028F9D1A368032BF6D9F3E72DE9D5
:103E6000F0410D4607461946281D90461E4600F0B3
:103E7000ACF8044638B13346424629463846A44693
:103E8000BDE8F0416047BDE8F08110B4EFF3118266
:103E9000202484F31288BFF36F8F416110BC01218D
:103EA000FCF72CBB38B50C46054658B151B10B6830
:103EB00043B14B6833B11C22002100F0FDFF2C619F
:103EC000002038BD6FF01500FBE7F8B504460E463C
:103ED000FFF7B5FF051E3BDBEFF31182202383F3D1
:103EE0001288BFF36F8F638B278B4FF6FF718B4266
:103EF00007F007072ED0062F2FD8DFE807F0182E7F
:103F0000082E180418006FF08505002303E0013324
:103F100063830225012382F31188BFF36F8FBBB146
:103F200000233A4631462046FFF799FF10E0002370
:103F30003360636823B9C4E9006627B13D46E4E70E
:103F40001E606660F9E702212046FCF7D7FA3D467D
:103F50002846F8BD6FF00A05D7E76FF00405D4E7EF
:103F600010B5EFF31182202383F31288BFF36F8F14
:103F7000048B04F00704022C0AD0012C0CBF6FF054
:103F800004006FF0850082F31188BFF36F8F08E0A3
:103F9000438B013B9BB2438323B92146FCF7AEFA26
:103FA000204610BD2046EEE7034658B1426802F0B5
:103FB0000302012A03D0032A04D1026812B10020AF
:103FC000986070476FF0150070474268816002F09A
:103FD0000302032A4FF0000203460CBF006810469C
:103FE0005A607047704700F067BF00F057BF014646
:103FF0000068FCF7BFBB08B5FCF7ECFBBDE8084068
:10400000FCF7F8BE00210120FCF7B4BB6FF085007F
:10401000704761B662B680F31188BFF36F8F704747
:1040200072B6002383F31188BFF36F8FBFF34F8FF6
:1040300030BF62B6BFF36F8F7047202809D9B0F147
:10404000004F08D80138B0FA80F0C0F11F004000DE
:104050007047082070473E20704708B5FDF7A8F864
:10406000002008BD0369C9B20C2202FB0133186CA1
:1040700000F00700704770B50346C9B20069EFF35E
:104080001186202484F31288BFF36F8F0C2505FB63
:104090000104246C14F0C00401D0A24210D105FB2D
:1040A000010001220264002086F31188BFF36F8FA4
:1040B00028B95B6803EBC1035B689847002070BDBB
:1040C0004FF0FF30F0E78022FFF7D5BFF8B5069F2D
:1040D00004690546C9B2EFF3118C202080F31288E1
:1040E000BFF36F8F0C2606FB0146306C00F0070E05
:1040F000BEF1010F11D1376400268CF31188BFF394
:104100006F8F46B90C2000FB0144C4E90E236B6895
:1041100053F8313098473046F8BD00F0C000874270
:104120000CBF6FF077064FF0FF36E6E713B580243B
:104130000094FFF7CBFF02B010BD10B40069CBB202
:104140001C2404FB0300002110BC10471046FEF79E
:104150002BBD00F051BAFEF743B943685B68D3F852
:1041600010350B600020704743685B6802EA01006D
:1041700021EA0201C3F80805C3F80C1500207047B6
:1041800043685B680020C3F80815704743685B68A4
:104190000020C3F80C15704743685B68D3F804250A
:1041A00021EA02001140C3F80805C3F80C150020ED
:1041B000704730B50369586800B30024884219D1AC
:1041C00008688CB99C685860A14200D198600020B2
:1041D00008602AB15A680A609A68596002B9996001
:1041E00000200FE02846E9E720609868814208BF78
:1041F0009C60ECE705680446002DF3D1002AE9D164
:104200006FF0150030BDFEF7FBB930B543681360A1
:10421000057A446804EBC504A34202D36FF00100A1
:1042200030BD5C798C4203F10803F0D10020F7E740
:1042300043681B68D3F88004C3F880047047426861
:104240001368D3F8100150B1D269002012780A70B7
:10425000C3F81001D3F8102101221A6070474FF003
:10426000FF30704702680346D2F8580140B95B68D6
:10427000DB0706D4D2F82001003818BF01207047B0
:104280000120704743681B68D3F80423D20517D573
:10429000D3F82021A2B1EFF31182202181F31288FB
:1042A000BFF36F8FD3F8201131B10021C3F8201173
:1042B000D3F820110121D96082F31188BFF36F8FE9
:1042C000D3F85831704713B501AA0446FFF79DFF94
:1042D000002805DB019B226819791868FDF7E0FAD0
:1042E00002B010BDF8B50022054601210220FCF7FE
:1042F000E9FC0220FCF7CAFC6C680121E068FFF7CA
:10430000E2FF6B681A682369C2F82435617D237D5A
:104310000B43A17D0B43C2F86C356E68D6E90043B0
:1043200013F001030ED02F6904F10C0107F108020C
:1043300004F5907000F00BF900283ADB387AFDF7AD
:1043400083FF01230822C4F80025B269C4F844257C
:1043500001210022C4F84825A1606BB9D4F82031AE
:10436000002BFBD0C4F82021D4F820310123E360D6
:104370004FF48073C4F80433D4F85831002BFBD0C9
:104380000021C4F800156D682C68E868FFF79BFFF2
:104390000823C4F800352A7A52B9EB69C4F83435D9
:1043A0000123C4F83835C4F81021D4F81021236053
:1043B0000020F8BD00F150039B009BB203F1804345
:1043C00003F5883300221A601B687047436B5B68F3
:1043D00018681A79836801215B699140184737B5DD
:1043E0000C46056991B944682846FFF71BFA206816
:1043F00023790269012112689940836811420CBF38
:104400001B69DB6803B0BDE8304018474FF4004C2F
:1044100040F2E73000214FF47A720023E4FB0C01F4
:10442000FBF76EFE02460B46CDE900012846FFF77A
:10443000D3F9002003B030BD73B5436804691D791A
:104440001868836806695B6801A9984740B93368B2
:10445000019858400123AB401840003818BF012094
:104460002060002002B070BD03690F2903BF1B68E4
:10447000136000206FF085007047F8B5446820682D
:1044800000F097FB98B1E6882068217946F48032E5
:10449000056987682B6801248C40F6074CBF2343CD
:1044A000A3432B603B68984700EAE070F8BD6FF0CB
:1044B0001200FBE74FF08053D3F83021082A03BFE6
:1044C000D3F83401B0FA80F0400900207047034669
:1044D0000020184700F051BB10B502461168B1B179
:1044E000BFF35B8FB1FA81F3C3F11F000123834057
:1044F00021EA030352E8004F8C4204D142E8003C19
:10450000BCF1000FF6D1BFF35B8FE7D110BD6FF0A8
:104510000B00FBE710B50368CB40DB0714D4012385
:104520008B400268BFF35B8F43EA020150E8004F03
:10453000944204D140E8001CBCF1000FF6D1BFF357
:104540005B8FEED1002010BD6FF01500FBE770B55A
:104550000C460021054608461646FDF767FE48B999
:104560003378DB0003F1804303F5F833C3F81055CB
:10457000C3F8144570BD10B1012802D07047FDF793
:104580002FBFFDF7DFBE18B1012803D100F019B825
:1045900000F032B8704708B5FDF7F0FEBDE80840FE
:1045A000FDF75EBF4FF08053D3F83021082A06D1C3
:1045B000D3F8340102288CBF00200120704700206E
:1045C0007047FDF785BE38B54FF080440223C4F82C
:1045D00008330123E3600023C4F80431D4F8043124
:1045E00042F21075D4F81834DB0304D50120FFF72C
:1045F00071FF013DF6D138BDFFF7E5BFF7B501907A
:1046000001A8DDE9084716461D46FDF761FF019B3D
:10461000B6F1000C18BF4FF0010C00EB83000B1E2D
:1046200018BF0123002D43EA4C030CBF4FF0000CD0
:104630004FF00C0C002C43EA0C030CBF4FF0000CA5
:104640004FF4E06C002F43EA0C03D0F800270CBFB6
:104650004FF0000C4FF4403C43EA0C0322EA030302
:1046600001B109780EB13678760019430DB12D7875
:10467000AD0031430CB12478240229430FB13F78B7
:104680003F040C433C43C0F8004703B0F0BD1FB5E6
:104690000DF10F03019300238DF80F1000931A46BC
:1046A0001946FFF7ABFF05B05DF804FB10B50446F3
:1046B0000846FDF71DFF04EB4004207DC0F34010C9
:1046C00010BD10B504460846FDF712FF04EB400488
:1046D000207DC0F3400010BD10B504460846FDF72C
:1046E00007FF04EB4004A08A400B10BD70B50446E0
:1046F00008461646FDF7FCFE08300D4634F810302B
:10470000DA0509D5C3F3432304EBC302314654F859
:104710003330526828469847A3682BB1E268314687
:104720002846BDE87040184770BD10B504460846DD
:10473000FDF7DEFE04EB4000838ADA051DD5C3F3E6
:10474000432123F4F853838204F1120204F172002E
:1047500032F8023F13F4807F03D0C3F3432399421E
:104760000BD08242F4D104EBC10300225A6004F161
:104770007800BDE81040FFF7CDBE10BDF0B5034690
:1047800000F58074002005460127844695420AD131
:10479000D3F87C2132B10022C3F87C21D3F87C31DC
:1047A00040F00040F0BD25F0404607FA06F63142E1
:1047B00009D0D4F800E0BEF1000F04D0C4F800C066
:1047C000D4F800E0304301350434DFE738B504465F
:1047D0000D46FFF76BFFA8B12046FFF772FF88B9BF
:1047E0002046FFF779FF226801238340C2F808338F
:1047F000236803EB8000D0F8103523F00303C0F8E2
:10480000103538BD28460021BDE83840FFF73FBFCE
:104810002DE9F043174685B004460846FDF768FECB
:10482000D7F800800E460546B8F1000F1ED020468E
:10483000FFF747FF18B12046FFF738FF20BB0023E2
:10484000CDE900338DF80E308DF80F300DF10F02E9
:1048500043460DF10E013046FFF7D0FE04EB450252
:10486000938A23F0020343F0010393827B689BB396
:104870003146204693F80080D3F80490FFF721FFDB
:1048800028B1B9F1000F1FD06FF0150027E004EB3D
:104890004500838A23F4604323F020038382B9F127
:1048A000000F11D0B8F1030FEED87B6821685B6868
:1048B00093F800C04FEA8C031944B8F1000F11D1EE
:1048C000C1F81085C1F8108504EB4502938A23F0E6
:1048D0001C0343EA88039382BB6843BB002005B0F6
:1048E000BDE8F083D1F8102522F00302C1F81025AD
:1048F00022681344D3F8102522F44F3222F4407278
:10490000C3F810253202D3F8101502F47C5242EAA3
:1049100008420A43C3F8102504EB4C03A3F87C605B
:10492000838A43EA4C3343F020038382CCE7D3E904
:10493000007831462046FFF7F8FE002FCED063689E
:104940009F4206D004F17800FFF7C6FD002804DA84
:10495000C5E7A3689845F5D1002004EBC003C3E97F
:10496000017804EB4505C0B2AB8A43EA402343F427
:104970008073AB82B2E72DE9F043054685B0084667
:1049800016461F46FDF7B4FD0C46804626B3284662
:10499000FFF797FE18B92846FFF788FE18BB05EB0E
:1049A0004809B9F8143003F01C0313B17378012BD4
:1049B00019D001238DF80F300023CDE90063721C5C
:1049C000B31C0DF10F012046FFF718FEB9F81430A3
:1049D00043F00303A9F81430002F3FD021462846A6
:1049E000FFF76FFE20B96FF0150005B0BDE8F0834A
:1049F0003E782B6803EB86030022C3F81025C3F82A
:104A0000102505EB48024FEA860C938A23F4604395
:104A100023F020039382787800B32968BF7861443B
:104A20000004D1F8103523F4991323F4F853C1F896
:104A30001035230200F4403003F47C53034338055F
:104A4000D1F8105500F4801003432B43C1F8103502
:104A5000938A43EA463343F0200393820020C4E75D
:104A6000C0E90312704770B504461546FFF71EFEF5
:104A700048B10846FDF73CFD04EB40040020A38A42
:104A80005B0B2B7070BD6FF01500FBE738B590F82D
:104A90008C4005469CB960222146143000F00CFA87
:104AA0002868C0F87C41D0F87C3140F30730FCF72F
:104AB000EDF8012385F88C30AB67204638BD6FF0E8
:104AC0007700FBE790F88C00003818BF0120704792
:104AD000FDF748BD2DE9F34104461746FFF7E6FD13
:104AE0000D462668F0B12046FFF7EBFD8046C8B9B9
:104AF0002046FFF7F1FD820002F5807346F803803F
:104B0000F35823681344D3F8102542F00102C3F888
:104B1000102527B1226801238340C2F8043302B074
:104B2000BDE8F081D6F80433002BA4BF4FF000435A
:104B3000C6F804332846FDF7DBFC04EB4004A38AE7
:104B4000C3F38203042B12D0052B12D001A80195C8
:104B5000FDF7BEFC019BD0F81015D94001F0010112
:104B60000231284602B0BDE8F041FFF790BD0321B5
:104B7000F7E70221F5E7FFF729BE08B1FCF75ABBBA
:104B8000704710B5436904463BB90020E26853788A
:104B900043F001035370404210BD98470028F4D001
:104BA0000028B8BF4042E368FF28A8BFFF20187064
:104BB000ECE740B1C368587810F001001EBF1878C8
:104BC000B0FA80F040097047EFF31183202383F39C
:104BD0001288BFF36F8FFEE708B5FFF7F5FF10B53A
:104BE0002024EFF3118384F31288BFF36F8FFFF754
:104BF00017FAF6E790F90E308B4201D0FEF798BA1B
:104C00000020704703460020C3E90200C3E90033D7
:104C100070473AB18A4205D3C0E90212C0E90000E8
:104C2000002070476FF015007047EFF305800038E3
:104C300018BF0120704738B58589EFF31181202214
:104C400082F31288BFF36F8F037C13F0080404D043
:104C500081F31188BFF36F8F38BD0122FEF738F959
:104C6000EB07F9D584F31188BFF36F8F042318463F
:104C700002DFF1E7FEF7EEB9D0E9003213605A60C7
:104C80000023C0E90033704708B5FFF7F5FF037C48
:104C900023F0020303740023836008BD38B5044683
:104CA0000D46FEF761F8237C43F002032374D5B16F
:104CB000A5602B689D4209D16B68C4E900531C6054
:104CC0006C6010E06A689A42F6D01B68002BF3D043
:104CD00093F90E1094F90E209142F3DD5A68C4E95D
:104CE000003214605C6038BD10B5EFF311842023EE
:104CF00083F31288BFF36F8FFEF760F884F3118897
:104D0000BFF36F8F10BDFEF759B8FEF72DB808B589
:104D1000EFF31181202282F31288BFF36F8F836833
:104D20000BB1FFF7B1FF81F31188BFF36F8F08BD9F
:104D300008B5037C13F0280F01460CD183680BB132
:104D4000FFF7A2FF0B7C23F004030B740846BDE8B9
:104D50000840FEF733B808BD38B50446EFF31185B7
:104D6000202383F31288BFF36F8FFEF729FC18B955
:104D7000A4F11800FFF7DCFF85F31188BFF36F8FF4
:104D800038BD08B50346EFF31181202282F3128863
:104D9000BFF36F8F0068834207D008B1FFF774FF3D
:104DA00081F31188BFF36F8F08BD0020F8E7084634
:104DB000FEF744B838B50C460546FEF725FAB4F1BF
:104DC000FF3F08BFB5F1FF3F1FBF47F6FF7300224B
:104DD0004FF47A71E0FB01321ABFD80B40EA42402F
:104DE0004FF0FF3038BDF8B50E461546EFF311878A
:104DF000202383F31288BFF36F8F0468A0421BD077
:104E0000E4B1D4E9003213605A60227C002322F01E
:104E10000202C4E900332274A36004F11800FEF713
:104E20008DFB2046A6676561FFF76DFF012087F3C4
:104E30001188BFF36F8FF8BD0020F8E72046F6E732
:104E400008B50246FEF7D2FA70B1D0E904319B1AD8
:104E500061EBE272B3F1004F72F1000104DA002A53
:104E6000ACBF1846002008BD6FF00040FBE708B556
:104E7000FEF724FC08BDFEF721BC30B50023C0E9D5
:104E80000812002400F118020025C0E90622C0E93A
:104E90000033C0E904450363436330BD0A449142D3
:104EA00000F1FF3300D1704710B511F8014B03F842
:104EB000014F9142F9D110BD02440346934200D103
:104EC000704703F8011BF9E710B5024601448A4216
:104ED000134603D01C780132002CF8D1181A10BDEB
:104EE000F0B5C3F137070446FFB203F01F031046C5
:104EF000082BE6B233D0102B3ED06508A40844EA54
:104F0000817445EAC1752D194FEA910242EB5102B5
:104F1000290941EA02716D1842EB1212290A41EA8D
:104F200002616D1842EB1222290C41EA02416D1810
:104F300042EB1242AD1842F10002EC0844EA42741E
:104F4000D10804EB8402A6EB4205EDB2092D0CD981
:104F50000134A5F10A0541F10001EDB212E0E408C7
:104F600044EA417406F00705C908303554EA0102E5
:104F700000F8015BBCD1F0BD240944EA017406F0DD
:104F80000F050909092D84BFED19EDB2EDE7000009
:084F9000A4B1FF7F0100000045
:104F98005912000000000000FD1100000000000090
:104FA80000000000F84F000000000000145000004E
:104FB80000000000305000005515000000000000FF
:104FC800891D000000000000D91100000000000049
:104FD800000000004C500000000000008450000059
:104FE8000000000068500000A50400000000000058
:104FF8007F580000F052000080520000BC000020E2
:10500800FC020020ED120000000000008E58000095
:105018000053000020520000BE0000205003002072
:105028006117000000000000AA5800001453000097
:105038009C520000C200002088030020E5420000C6
:1050480000000000B8580000705300007C520000B7
:10505800C4000020E8000020C11F0000000000007C
:105068009C5800000000000060520000C0000020B2
:105078005C030020751A000000000000C258000000
:105088007C53000044520000C6000020A403002006
:085098007B4400000000000051
:1050A00097450000CF4400000000000005400000CC
:1050B0003050000085420000000000000540000064
:1050C0000000000005400000000000000540000056
:1050D000140000200742000000000000054000000E
:1050E0000000000005400000000000000540000036
:1050F0000000000005400000000000000540000026
:1051000068500000E51900000000000005400000A4
:105110000000000005400000000000000540000005
:10512000000000000540000000000000811E00009B
:1051300000000000054000000000000005400000E5
:1051400000000000054000000000000005400000D5
:1051500000000000054000000000000005400000C5
:1051600000000000054000000000000005400000B5
:1051700000000000054000000000000005400000A5
:105180000000000005400000000000000540000095
:105190000000000005400000000000000540000085
:1051A0000000000005400000000000000540000075
:1051B0000000000005400000000000000540000065
:1051C0000000000005400000000000000540000055
:1051D0000000000005400000000000000540000045
:1051E0000000000005400000000000000540000035
:1051F0000000000005400000000000000540000025
:105200000000000005400000000000000540000014
:105210000000000005400000000000000540000004
:10522000DD1500005B410000694100008141000084
:105230008D410000994100009D170000B34100001E
:10524000000000000000000000000000000000005E
:105250003944000069440000000000000000000024
:10526000000000000000000000000000FD19000028
:10527000B91900000000000000000000DF4300003A
:1052800045130000C74000002D4100000000000051
:105290006540000000000000000000003F420000E8
:0852A000B51A000031420000C4
:1052B0000338FDD870470000000000200000000007
:1052C00000000B0602000000CC52000000000000AD
:1052D00070580000260002060000002078580000E8
:1052E00022000B11A912000079120000000000003A
:1052F000F5130000751300005741000053410000F2
:10530000FFFFFFFF0000005014000020000000001D
:10531000000000000020004001000000000000002C
:10532000345300000000D60100000000F603002006
:10533000F503002000200040405300000200000060
:1053400060530000040000005053000004010000FE
:10535000068000000880000105800002078000032D
:10536000060000000800000105000002070000031D
:10537000145000000D000100E8030000145000006C
:105380000B0011000800000003000000984F00000F
:10539000A04F0000C84F0000D04F0000F04F0000A9
:1053A000F84F0000312E302E30005A657068797247
:1053B000204578616D706C65204170706C69636127
:1053C00074696F6E2025730A0055736520746865D3
:1053D0002073656E736F7220746F206368616E67EF
:1053E00065204C454420626C696E6B696E67207065
:1053F0006572696F640A0050726F78696D697479BB
:105400002064657465637465642C207365747469C5
:105410006E67204C454420706572696F6420746F1C
:10542000202575206D730A002A2A2A20426F6F7486
:10543000696E67205A6570687972204F53206275D3
:10544000696C642076342E342E302D353636362D68
:1054500067613365343139313465333365202A2A45
:105460002A0A0072302F61313A20203078253038F6
:1054700078202072312F61323A2020307825303860
:1054800078202072322F61333A202030782530384E
:10549000780A0072332F61343A2020307825303872
:1054A00078207231322F69703A20203078253038D8
:1054B00078207231342F6C723A20203078253038C1
:1054C000780A0020787073723A20203078253038BE
:1054D000780A004661756C74696E6720696E737432
:1054E00072756374696F6E20616464726573732092
:1054F000287231352F7063293A203078253038787A
:105500000A00556E68616E646C6564204952516E84
:105510003A2025640A002A2A2A2A2A204D5055209A
:105520004641554C54202A2A2A2A2A0A0020205370
:105530007461636B696E67206572726F7220286395
:105540006F6E746578742061726561206D6967683B
:1055500074206265206E6F742076616C6964290A1C
:10556000002020556E737461636B696E67206572ED
:10557000726F720A00202044617461204163636588
:1055800073732056696F6C6174696F6E0A00202016
:105590004D4D46415220416464726573733A203028
:1055A0007825780A002020496E73747275637469D7
:1055B0006F6E204163636573732056696F6C61740D
:1055C000696F6E0A002020466C6F6174696E672DEA
:1055D000706F696E74206C617A7920737461746580
:1055E00020707265736572766174696F6E20657282
:1055F000726F720A002A2A2A2A2A205553414745E7
:10560000204641554C54202A2A2A2A2A0A002020C2
:105610004469766973696F6E206279207A65726F6A
:105620000A002020556E616C69676E6564206D65A7
:105630006D6F7279206163636573730A0020204E79
:105640006F20636F70726F636573736F7220696E22
:10565000737472756374696F6E730A002020496CED
:105660006C6567616C206C6F6164206F66204558C3
:10567000435F52455455524E20696E746F2050431B
:105680000A002020496C6C6567616C207573652089
:105690006F662074686520455053520A00202041EF
:1056A0007474656D707420746F20657865637574AB
:1056B0006520756E646566696E656420696E7374D5
:1056C00072756374696F6E0A002A2A2A2A2A204298
:1056D0005553204641554C54202A2A2A2A2A0A008A
:1056E0002020537461636B696E67206572726F72FC
:1056F0000A002020507265636973652064617461DB
:1057000020627573206572726F720A002020424613
:10571000415220416464726573733A203078257871
:105720000A002020496D70726563697365206461A9
:10573000746120627573206572726F720A00202096
:10574000496E737472756374696F6E20627573202D
:105750006572726F720A00526573657276656420B5
:10576000457863657074696F6E2028005370757298
:10577000696F757320696E74657272757074202814
:105780004952512000535053454C20696E20746893
:1057900072656164206D6F646520646F6573206E4F
:1057A0006F7420696E646963617465205053500A98
:1057B000002A2A2A2A2A2048415244204641554C90
:1057C00054202A2A2A2A2A0A002020427573206699
:1057D00061756C74206F6E20766563746F722074CF
:1057E00061626C6520726561640A00202044656214
:1057F0007567206576656E740A0020204661756CB9
:105800007420657363616C6174696F6E20287365C1
:10581000652062656C6F77290A00415243485F45F5
:105820005843455054207769746820726561736FDE
:105830006E2025780A0A002A2A2A2A2A204465622C
:105840007567206D6F6E69746F722065786365701F
:1058500074696F6E202A2A2A2A2A0A002A2A2A2AEA
:105860002A20257320256429202A2A2A2A2A0A0088
:10587000464C4153485F30005352414D5F30006306
:105880006C6F636B403430303030303030006770D4
:10589000696F4035303030303030300074656D70B5
:1058A00040343030306330303000756172744034D1
:1058B0003030303230303000626C696E6B2D6C6588
:1058C00064006578616D706C652D73656E736F72C1
:1058D000006D61696E00286E756C6C29002A666C1B
:1058E0006F61742A000001020304050607002030DE
:1058F0003030303030303030303030303000010037
:10590000E93D0000000000005B40000000000000D6
:1059100000000000006000400000000000000000E7
:105920000000000000000000000000000000000077
:105930000000000000000000000000000000000067
:105940000000000000000000000000000000000057
:105950000000000000000000000000000000000047
:105960000000000000000000000000000000000037
:105970000000000000000000000000000000000027
:105980000000000000000000000000000000000017
:105990000000000000000000000000000000000007
:1059A000000000000090D003FF0000009002000003
:0C59B000FFFFFFFFB4000020B400002047
:0C59BC00000000000000000000000000DF
:0459C80015E015E0F1
:0400000300000C31BC
:00000001FF
